S072000073616D706C652D617070732F626F6F746C6F616465722D73746F726167652D696E7465726E616C2D626C652F65667233326267317032333266323536676D34382F626F6F746C6F616465722F52656C656173652F4578652F626F6F746C6F616465722D636F6D62696E65642E73333741
S3150000000090040020A9050000F1050000F505000098
S31500000010F9050000FD0500000106000000000000D3
S315000000200000000000000000C005000005060000FA
S3150000003009060000000000000D0600001106000081
S315000000406849694A01E021B1491E1369DB07FAD400
S3150000005001B9BAE0506001201060106910F0060F77
S3150000006005D0410700D5B3E0800700D5B3E00020F6
S315000000707047F0B513460022002936D0594C5A4D28
S315000000808BB98B4231D250F8046BEE605B1C0826AC
S315000000902E60264601E036B3761E2F69FF07FAD496
S315000000A0002EEED11FE0EFF3108672B600230EE0AD
S315000000B02F6907F01907102F08BF2F602F693F0718
S315000000C0F6D550F8047BEF605B1C10272F608B423F
S315000000D0F4D306B962B6264601E026B1761E286933
S315000000E0C007FAD40EB96FF002021046F0BD2DE932
S315000000F0F84F3B4F0D4639680446002041F0010198
S315000001009B4639604FEA92088146AA4602E0B1440E
S315000001100AEB860AC14517D204EB89063046FFF77B
S315000001208FFF010022D1C6F30A00C0F500608608E1
S31500000130A8EB0900B04238BF06465A46314650463B
S31500000140FFF797FF0100E2D021682A68914209D0A3
S315000001502046FFF775FF010004D15A4601212846C3
S31500000160FFF787FF3968490849003960BDE8F28F13
S315000001701B491C4A0B6843F001030B608860012091
S3150000018048604869400704D5086840084000086090
S315000001901EE04869800704D50868400840000860EA
S315000001A019E00220486001E022B1521E4869C007EA
S315000001B0FAD422B9086840084000086005E00868DB
S315000001C0400840000860002070476FF0020070474A
S315000001D04FF0FF3070476FF001007047002386E74D
S315000001E008000E40809698000C000E40084841F624
S315000001F0713181630168490849000160704704480C
S3150000020001684908490001600021816370470000C8
S3150000021008000E4010B50446FFF7E8FF2046FFF73A
S31500000220A7FF0446FFF7EBFF601E8041C00F10BD1D
S3150000023010B58408800782B005D5080440F47F40D5
S3150000024040F0FF0003E041F07F4040F47F00009063
S31500000250FFF7CCFF04226946A000FFF7BFFF044664
S31500000260FFF7CDFF204616BD2DE9F04104460E46A8
S31500000270154604F0010005F00101084328D12DB30D
S31500000280A00707D536F8021B2046FFF7D1FFF8B9BD
S31500000290A41CAD1E042D13D3AF08FFF7A7FFBF00A4
S315000002A03A4631462046FFF799FF8046FFF7A7FFFB
S315000002B03C19ED1B7808B8F1000F06EB400607D194
S315000002C025B131882046FFF7B3FF08B9012000E0C9
S315000002D00020BDE8F0810000F8B528200168086913
S315000002E0CC68826AA24221D304F560518A421DD2AB
S315000002F0111B4518224E2968B14217D1E968214FD2
S315000003004FF0FF3200F04EF8B8420FD100F042F83D
S315000003100AD20168B14207D18168AA68914203D323
S3150000032000F032F8B84201D00120F2BD0020F2BD43
S31500000330F8B5282000680569C468A86A001B2E184D
S31500000340274604E03846FFF765FF07F50067F268C1
S3150000035010198742F6D329462046FFF785FF70B16C
S3150000036000F018F808D20168054A914204D100F05D
S315000003700BF80449884201D00020F2BD0120F2BDED
S3150000038007B0CD5EE320BBDEC1684FF0FF322046EA
S3150000039000F008B840F628000068A0F50061B1F545
S315000003A0605F704710B50A4B1C6844F020041C605F
S315000003B00124084B1C609A605C6002E010F8012B77
S315000003C09A610A46511E002AF8D1D86910BD00BFAD
S315000003D0B0400E4000C0014016481749006808604A
S315000003E0FFF7A6FF0028FBD040F2022000F02AF813
S315000003F000BF10B5114C0020206000F043F81049F2
S315000004000968B1F5803F0AD040F20921884218BF39
S31500000410B0F5007F03D1FFF75FFF00B110BD4FF4C9
S3150000042000602060016881F3088881F309884068CC
S315000004308047FEE7880000208C00002008ED00E0E1
S3150000044004500E404FF0005108804FF20F004880D4
S315000004500948016821F4E06141F480610160BFF35D
S315000004604F8F0648064A016801F4E06111430160B6
S31500000470BFF34F8F00BFFDE700500E400CED00E0CC
S315000004800400FA054FF000504FF20F0241889142E6
S3150000049001D100887047002904BF0088012802D1D5
S315000004A040F2022070474FF4007070470B48016815
S315000004B041F4700101600A48416941F4005141610B
S315000004C00168890889000160416B49084900416358
S315000004D0016A21F0805101627047000088ED00E05A
S315000004E040300E4010B450F8041B79B102684368DE
S315000004F002440830DC0744BFA9F10104E31852F8AE
S31500000500044B43F8044B091FF9D1ECE710BC7047C4
S3150000051010B5074979441831064C7C44163404E07A
S315000005200A68081D114488470146A142F8D110BD4A
S315000005302C0000003C0000004EF68851CEF200016F
S31500000540086840F470000860BFF34F8FBFF36F8FE9
S315000005504FF00070E1EE100A7047000089FFFFFFC0
S315000005601000000070000000800000200000000065
S315000005700120C046002801D0FFF7CAFF0020AFF3D4
S315000005800080FFF729FF00F000F800F001B8000036
S315000005900746384600F002F8FBE700002021090371
S315000005A026311820ABBEF9E702488047024880474B
S315000005B002480047AD040000F3030000E505000013
S315000005C0AD1007B0010000000000060100080000A1
S315000005D00080000000F0490200800000C0EA21010E
S315000005E0C0EA2101AFF30080FFF7A6FFFFF7C0FFC7
S315000005F0FFF7FEBFFFF7FEBFFFF7FEBFFFF7FEBF29
S31500000600FFF7FEBFFFF7FEBFFFF7FEBFFFF7FEBF18
S30900000610FFF7FEBF2D
S3150000080090100020C93200009B0B00002509000053
S315000008104F120000B31300009F1D000000000000EF
S31500000820000000000000000040080000A71D0000B6
S31500000830F32C0000000000003B2D0000B72F000045
S3150000084007B0CD5E0100000000000601302B00005D
S315000008500040000000000400F0000100250B00002D
S31500000860290B0000550C0000331D0000611D00001F
S315000008708C0800004546523332000000010000009B
S31500000880010000000018020000D80100000100006D
S31500000890690E0000C10E0000EB0E0000090F0000FB
S315000008A04D0F0000F7300000F12F0000CF3100009F
S315000008B06D0F0000990F0000F90F0000970D000062
S315000008C0A90D0000C50D0000090E000010B50A4B69
S315000008D01C6844F020041C600124084B1C609A60CC
S315000008E05C6002E010F8012B9A610A46511E002A4C
S315000008F0F8D1D86910BD00BFB0400E4000C001401D
S3150000090040F628000068006970472820044A0068FD
S315000009100168914201D100697047002070470000CC
S31500000920AD1007B04FF4017000F0ACF800BF4448BA
S3150000093044490068086082B043480068040E68466F
S3150000094000F0D6F88F2C10DA4048414C016841F08F
S31500000950040202604FF05013002230255543521C0A
S315000009606351062AF9D3016001E0902C06DA394872
S315000009700168C909C90141F0200101609DF8010023
S31500000980012804D13448016841F0040101600020C7
S315000009903249086000F0C6F800F06FF800F0C8F8B9
S315000009A010B940F201200FE02D4901E00099491EDF
S315000009B0009100990129F9DA40F20541884214BFF5
S315000009C04FF4017040F2032000F05CF800BF000015
S315000009D038B5244800680124012540050CD500F0EF
S315000009E073F840F20221401A04D0C01E02D0C01E85
S315000009F0012801D80024002544F20400006810F103
S31500000A00010F06D1BDE832404FF4027000F02EB857
S31500000A1031BD2DB14FF4804000F01CF90400F1D037
S31500000A20002CF5D010494FF480400860024610466D
S31500000A30016881F3088881F3098840688746FEE7E4
S31500000A40880000208C000020FC81E00FB0400E40A2
S31500000A5000A000402C400E4064310E40B40AC6434C
S31500000A6000350C0004500E4008ED00E04FF0005138
S31500000A7008804FF20F00488070470F494CF23C3017
S31500000A80088070474FF0005108804FF20F004880F1
S31500000A900A48016821F4E06141F480610160BFF316
S31500000AA04F8F0748074A016801F4E061114301606E
S31500000AB0BFF34F8F00BFFDE70200002000500E403D
S31500000AC00CED00E00400FA054FF000504FF20F0263
S31500000AD04188914201D100887047002904BF0088EF
S31500000AE0012802D140F2022070474FF4007070478F
S31500000AF00B494A680B68920002F03C02C3F381136B
S31500000B001A4382700A6802F03F0242708A68C96816
S31500000B1002F0F002C1F303111143017070470000A7
S31500000B20E0FF0FE000F035B900F08DB90020704706
S31500000B3010B5DEB04FF4BC726946002000F016FA1C
S31500000B400021684600F028FA40F201218842F7D0D9
S31500000B5040F20321884240F205441BD19DF8010072
S31500000B609DF8001079B1A8B140F6280000680199F7
S31500000B708068884208D25A9800F0A9FA50B140F22B
S31500000B800920FFF77FFF28B103995A9800F0B2FABF
S31500000B9000B1002420465EB010BDFEE72DE9F0410D
S31500000BA0044640F6280088460068016916468C42CD
S31500000BB022BF37194069B84216D3E00AB4EBC02009
S31500000BC004BF204600F0E2FA04F50060C50AED0213
S31500000BD004E0284600F0DAFA05F50065BD42F8D3D0
S31500000BE032464146204631E0BDE8F0812DE9F0412C
S31500000BF08846282115460968394B0A689A4223D146
S31500000C000969461840F62801AF1909684A69BA42C7
S31500000C101AD310B9086900F0B9FAF00AB6EBC02089
S31500000C2004BF304600F0B2FA06F50060C40AE402DA
S31500000C3004E0204600F0AAFA04F50064BC42F8D3AA
S31500000C402A464146304601E0BDE8F081BDE8F04164
S31500000C5000F0C6BA50B585B0044668460FF20011DA
S31500000C60102200F005FB22686068616B02F16042A9
S31500000C70B2F5F84F2AD840F6280212681269904257
S31500000C8024D3184B984221D202F1400081420E46ED
S31500000C9001D3994205D30020C046401E8041C00FB3
S31500000CA01BE00020C04698B900F054F8A0B970695E
S31500000CB090B102280CD1B069001D011B4FF0FF3224
S31500000CC02046FFF703FE0849884205D0002004E0CD
S31500000CD0204600F00BF800E0012005B050BD0000F2
S31500000CE0AD1007B001000400E320BBDE50B59FB095
S31500000CF0044668460FF27801102200F0B9FA666BD6
S31500000D0000F028F818B9706901280BD1B66940F6C9
S31500000D10280000680069864228BFA64202D3B6F5BD
S31500000D20802F01D9002013E004A800F0CCFA321B72
S31500000D30214604A800F0D1FA04A800F0D0FA06F182
S31500000D402002314604A800F0CDFA401E8041C00FB3
S31500000D501FB050BD10226946304600F0F9BA0000B7
S31500000D6013B779FAC925DDB7ADF3CFE0F1B614B8FC
S31500000D7013B779FAC925DDB7ADF3CFE0F1B614B8EC
S31500000D800FF2C80070470818054988428041C00F15
S31500000D907047002070470348006800F00100704764
S31500000DA0010004001C000E4070B500F028F810B9D0
S31500000DB040F2024070BD32462146284600F048FA0D
S31500000DC0002070BDF8B500F01AF840F20247A0B155
S31500000DD0002000E0001DB04207D20119096811F198
S31500000DE0010FF7D040F20340F2BD324629462046B5
S31500000DF000F0F6F908B10020F2BD3846F2BD0D4606
S31500000E00164604463146BEE738B504460D46680523
S31500000E1001D1600502D040F2044032BD2046FFF702
S31500000E20B2FF48B1204600F0B1F9B5F5006504F50A
S31500000E30006404D00028F5D140F2024032BD0028FB
S31500000E40FAD0002032BD00207047000001020300E6
S31500000E502800000028000000000800000000040030
S31500000E60740800000200000010B504000CD04FF416
S31500000E7080302060002060603B4801782172406825
S31500000E80E060FFF77DFF206110BD70B504464FF4AA
S31500000E90B47026180D46A2B0B1683068802301AA46
S31500000EA000F023F80095802301AA214604F12400CE
S31500000EB000F0F6FBF060B0688030B06022B070BD24
S31500000EC010B540F2014231B1274B5C68A04204D311
S31500000ED0002008604860104610BD03EBC000826821
S31500000EE00A60C0684860002010BD38B500F021F8DF
S31500000EF000D325E000F017F800D224E0806820181F
S31500000F00BDE83840FFF750BF38B500F012F800D3FF
S31500000F1016E000F008F800D215E080682018BDE859
S31500000F203840FFF74FBF03EBC0001519C368AB424B
S31500000F3070470C4611461A460B4B5D68A84270472F
S31500000F4040F2014032BD40F2024032BD06494A68D5
S31500000F50904202D340F20140704701EBC000C168E5
S31500000F608068FFF751BF00007C08000030B50446DA
S31500000F700D4683B01146284600F0DBFE58B9694697
S31500000F802046FFF79DFF30B94FF4B4702844046043
S31500000F900199416000203EBD7FB504460D460FF223
S31500000FA084100FC86E4686E80F0002954FF4B6709F
S31500000FB02518A86888B96868296888420DD26946E4
S31500000FC02046FFF762FFA86800281CBF41F2070110
S31500000FD088420CD140F2012009E0A01C01780029CA
S31500000FE01DBF4078002840F2032040F2022004B0E2
S31500000FF070BD012018707047F0B585B0044600201A
S315000010008DF800000D4616460FF228100FC801AFE6
S3150000101087E80F00CDF804D0002030601C21284658
S3150000102000F0BEFE4FF4B670271803E001A9204673
S31500001030FFF72BFF9DF8000048B994F86A001128C5
S3150000104005D0B86818B9786839688842EED3207830
S3150000105008B160683060607828B11C2204F108018C
S31500001060284600F005F99DF80000002804BF6078C6
S31500001070002801D1207808B1002001E040F20640A6
S3150000108005B0F0BD70B504460D46202304F1FC0200
S3150000109004F1B40104F1240000F0C6FA4FF4B6706E
S315000010A0261803E029462046FFF7EFFEB06818B978
S315000010B0706831688842F5D3A01C017800291CBFEE
S315000010C04078002801D0012070BD002070BD10B509
S315000010D040F62802E2B0126892688A4202D200F014
S315000010E016F808B1002003E00FF2580000F013F8DC
S315000010F062B010BD10B5E2B000F009F808B10020EA
S3150000110003E00FF2500000F006F862B010BD4FF495
S31500001110BC7204A92AE70FC86C4684E80F0069462A
S3150000112004A8AFE700000000000000000000000077
S315000011300000000000000000F30F0000F30F0000A5
S31500001140F30F000000000000000000000000000097
S31500001150ED0B0000000000009D0B000000000000E9
S3150000116000000000084841F67131816301684908B2
S315000011704900016070470448016849084900016058
S31500001180002181637047000008000E4010B5044638
S31500001190FFF7E8FF204600F09FFE0446FFF7EBFF4F
S315000011A0601E8041C00F10BD10B58408800782B054
S315000011B005D5080440F47F4040F0FF0003E041F00D
S315000011C07F4040F47F000090FFF7CCFF0422694681
S315000011D0A00000F0B7FE0446FFF7CDFF204616BD7F
S315000011E02DE9F04104460E46154604F0010005F0CF
S315000011F00101084328D12DB3A00707D536F8021BF5
S315000012002046FFF7D1FFF8B9A41CAD1E042D13D359
S31500001210AF08FFF7A7FFBF003A463146204600F069
S3150000122091FE8046FFF7A7FF3C19ED1B7808B8F141
S31500001230000F06EB400607D125B131882046FFF79F
S31500001240B3FF08B9012000E00020BDE8F081FEE709
S3150000125062B38B0708D0521E11F8013B00F8013B20
S3150000126000F024808B07F6D1830740F0208000BF72
S31500001270103A07D330B4B1E83810103AA0E8381065
S31500001280F9D230BC530724BFB1E80810A0E8081013
S3150000129044BF51F8043B40F8043BD20724BF31F861
S315000012A0022B20F8022B44BF0B7803707047083AD4
S315000012B007D3B1E80810083A40F8043B40F804CBDD
S315000012C0F7D25307E4E710B5044600F0DFFE2046E8
S315000012D0BDE81040002100F057BF00F058BF01469E
S315000012E000F056BF70B504000D4618BF002DA2B021
S315000012F0164600D016B940F2016023E001211248DB
S3150000130000F0CAFF402111A800F04AFD00F0FCFFE2
S31500001310014611A801F0ECFA00F0F8FF014619A801
S3150000132001F0E6FA294601A801F0E2FA314609A8D9
S3150000133001F0DEFA01A8009011AB202221460348F5
S3150000134001F0E5FA22B070BD00150A0000000F405A
S315000013500300002013F0030F09D0521E22BF13F81A
S31500001360010B11F801CBB0EB0C00F3D07047121F44
S3150000137022BF53F8040B51F804CB6045F7D0121D79
S315000013800AD200BA9CFA8CFCB0EB0C0038BF6FF0A6
S31500001390000088BF01207047521E22BF13F8010BC0
S315000013A011F801CBB0EB0C00F6D0521C08BF10466A
S315000013B07047FEE72DE9F8431F4604467868002883
S315000013C00D4616464CD015F0030018BF41F2020038
S315000013D046D1FFF795FA216E001D721882421DD381
S315000013E000F11803994219D28446884238BF8C46C8
S315000013F09A4288BF1A46ACEB0101ACEB000005EB44
S315000014000108A2EB0C0920444A4641466830FFF722
S315000014101FFFFF224946404601F0F0FBFFF775FA31
S31500001420216E001D884222BF7218031D9A420DD3F9
S31500001430411A05EB01080422414604F18000FFF73A
S3150000144007FFFF220421404601F0D8FB29463B68EE
S31500001450206E7D683246A847206E30182066002030
S31500001460BDE8F28330B54B688C689C4206D200F129
S3150000147040021B1B14781B19412B01D3002030BDE1
S31500001480537814788D68E3180C68645D03F03F03A5
S31500001490C4548B685B1C8B6013785B1C13704C68A0
S315000014A08B68A342ECD3012030BD90F840004A6817
S315000014B089681018401A70472DE9F0410F46144606
S315000014C098460546FFF7F1FF404505F1400607D26D
S315000014D039462846FFF7C6FF00284DD0002049E0D0
S315000014E000200BE07178695C2154401C7178491C1E
S315000014F001F03F0171703178491E3170317809B1C0
S315000015004045EFD3B9687A68914238BF404507D263
S315000015103A68515C2154401CB968491CB960F1E72E
S31500001520404529D1B26C41462046FFF7CFF9B06459
S31500001530069820B1F06842462146FFF7CEFE07988E
S3150000154000281CBFF078002805D0B0684346224624
S31500001550214601F0A5FBF07838B1F069B169404445
S31500001560F061884224BF0020F070706940447061C9
S3150000157041F20300BDE8F0811220B07141F2020091
S31500001580F8E7F0B585B004460020019000901546B6
S31500001590082302AA00F0BAFB41F20306B0423CD18E
S315000015A094F8430004F1480738B100F038F8386879
S315000015B0082302AA02A901F073FB9DF80A109DF800
S315000015C00B00090441EA00609DF8091040EA012079
S315000015D09DF80810084328609DF80E209DF80F100E
S315000015E0120442EA01619DF80D2041EA02219DF8AC
S315000015F00C201143696094F8431049B9DFF8A0162E
S3150000160088421CBFDFF89C16884201D000F007F81C
S315000016106868B8600020F860304605B0F0BD7868AC
S31500001620082202A9FFF759BEF8B5044604F140079F
S315000016300020B87138707870F870787138710D467E
S3150000164003F02000B87016464FF0FF30B864FF2252
S31500001650002038627862182104F1680001F0CEFAA1
S31500001660FF22042104F1800001F0C8FAFF220421C0
S3150000167004F1840001F0C2FABD60FE600020C0469D
S3150000168000B11DB10020C04618B116B941F20B00D9
S31500001690F2BD16B1F868FFF716FE0020F2BD000095
S315000016A02DE9FA4F99B0044603A80021002300252E
S315000016B02AC01A98DDF890A00392049004F142061D
S315000016C004F1480741F203080DF120090EE000F08D
S315000016D001FB40452CD10798DFF8CC15B8600020F7
S315000016E0F8600698884270D10220307105981A99E0
S315000016F0884280F0D18230791228F7D8DFE810F0DE
S3150000170014001500C900420117016401FB005701CE
S3150000171064015201640152012A02C9029002A60222
S31500001720A902D201C902E1E7D1E700F0D3FA4045A8
S3150000173040F0B382B07820B10698DFF86815884289
S3150000174043E03078C0074BD57078002848D106981A
S31500001750DFF8541588421CBFDFF85015884222D0A6
S31500001760DFF84C1588421CBFDFF8481588421AD0AE
S31500001770DFF84415884222D0DFF82415884263D06A
S31500001780DFF83815884213D0DFF8341588420DD0BB
S31500001790DFF81015884215D0DFF8281588421CBFDF
S315000017A0DFF82415884200F0ED8011E00E209CE75A
S315000017B00F203071B86838610020786196E71220F2
S315000017C0307163E00020C046002840F0DB8036E040
S315000017D01220307106A80020C046002856D0A9E184
S315000017E00698DFF8C81488421AD0DFF8C414884275
S315000017F014D0DFF8C014884214D0DFF8A41488424D
S315000018001FD0DFF8A014884212D0DFF8B81488423F
S315000018100CD0DFF8B414884206D017E0042064E741
S31500001820062062E7072060E709205EE70B205CE7F9
S315000018300020C046002804BF70780028C5D10C20BF
S3150000184053E770780028C0D110204EE706A8002084
S31500001850C046A0B106987864112030710698002021
S31500001860C046054630788006A8D5002DA6D0696802
S315000018700800A3D02046884700289FD05AE11220AE
S315000018803071707810B141F2040006E241F20800AE
S3150000189003E2F868082831D200200190082300F0FE
S315000018A038FA4045F4D199F803000006B0F1407FBC
S315000018B004D01220307141F20900EEE199F80500DA
S315000018C099F8041041EA00200290C00704D5307848
S315000018D040F00100307002E00020C04630B9002020
S315000018E0C0460028D5D00298C005D2D41220307147
S315000018F041F20A00D1E1BB68F868984280F0C781DE
S3150000190001200190009000F0FFF94045F2D11998AE
S315000019101C2208A90830FFF7ABFC19990120487072
S31500001920E9E7052030710120F0700020F861F868C1
S315000019300828BFF4DBAE012001900090082300F0D8
S31500001940E3F94045D6D11999DFF8802301200870C4
S3150000195000F0C4F9199948600020806A0168914234
S31500001960DFD199F8062099F80710C068120442EAF8
S31500001970016199F8052041EA022199F804201143F2
S315000019808142CED012203071D4E0012000F0B9F9A6
S315000019904045AFD100F0A2F90290B868052824BFEF
S315000019A00298B861F8680428EFD30A209DE6002063
S315000019B0F861082099E6DAF80030F8695A4608A96D
S315000019C0E047F8695844F861B868F968814295D2E9
S315000019D0A0EB010BBBF1040F03A9204604D3FFF7CC
S315000019E064FD042804D26CE0FFF75FFD584568D318
S315000019F0BBF1410F28BF4FF0400B00F07EF9584570
S31500001A0002D200F07AF98346BBF1040F24BF4FEAF5
S31500001A109B004FEA800B00F083F9404540F03D8182
S31500001A203079082804D1DAF808C0BCF1000FC2D119
S31500001A30CBF10400BBF1040F009007D2014608A8C1
S31500001A40FF22584401F0DAF80098834430790A28D6
S31500001A5006D153465A4608A92046FFF7ABFCB3E722
S31500001A600528B1D1DAF80C000028ADD0F8690528B0
S31500001A7012D20BEB000107290ED308A9091D081A7B
S31500001A8000900146042204F18400FFF7E1FB009870
S31500001A90FF22042101F0B2F8DAF80030F869DAF82A
S31500001AA00CC08BE73078800634D5786C0020C046B1
S31500001AB005002FD13EE04FF0010B00F01EF958450E
S31500001AC004D203A92046FFF7CDFCE5E0B868F96823
S31500001AD0A0EB010BBBF1410F28BF4FF0400B00F00C
S31500001AE00CF9834502D300F008F9834600F018F993
S31500001AF0404521D1307880060CD5DDB1D5F808C037
S31500001B00BCF1000F16D053465A4608A92046E047B6
S31500001B10002811D1F868B968884230780DD280065D
S31500001B20C9D5002DC7D029690800C4D020468847EA
S31500001B308346C2E741F20100AFE0800609D5002DD9
S31500001B4007D0EA68100004D0514620469047002886
S31500001B50F2D19CE0002000F0D4F8404507D1386C63
S31500001B605B49884204D01220307141F2050094E0AE
S31500001B700020C04618B919990120C87003E01998C9
S31500001B80C078002846D0F07850B1DAF80C5028001A
S31500001B9006D0DAF80030042204F184010420A847B4
S31500001BA0B86900281CBFDAF80400002832D04FF0CC
S31500001BB0FF30029004F180050422294602A8FFF7AF
S31500001BC0C7FB50B1FEF7A1FE38B12946DAF800305E
S31500001BD0DAF804500422001DA847042204F1680123
S31500001BE002A8FFF7B5FBA8B1FEF78AFEDAF80030C7
S31500001BF0DAF80450142204F16C010830A847FEF705
S31500001C007FFE04F16801DAF80030DAF804400422B5
S31500001C10001DA0471999012088700D2030713BE006
S31500001C20F868102833D200200190102300F071F8D4
S31500001C30404532D100F06CFB8021009001910123D8
S31500001C40386809AA022101F00CF8E9E70120707052
S31500001C501DE0B078D8B901900090402300F054F808
S31500001C6040451AD17868FFF73AFB786810AA08A9A8
S31500001C70FFF738FB38B119990020C870122030716F
S31500001C8041F2060009E019990120C870B0700120E0
S31500001C902BE541F2070000E000201BB0BDE8F08F05
S31500001CA0F70A0AF7FC0404FCEB17A603F40A0AF485
S31500001CB0F50909F5F60808F6F70909F7F90707F926
S31500001CC0FA0606FAFD0303FDFE0101FEAD1007B09C
S31500001CD0E320BBDE06AA03A9204652E499F80210C7
S31500001CE099F80300090441EA006099F8011040EAF6
S31500001CF001209DF820100843704703A92046FFF7EE
S31500001D00D4BB01900090042308AA03A92046FFF73C
S31500001D10D3BB0120009008AA03A92046FFF7CCBB3D
S31500001D200120019000905B4608AA03A92046FFF710
S31500001D30C3BB10B5B1F5BC7F044602D240F2052004
S31500001D4010BD4FF4BC7100F02BF804F1FC0204F155
S31500001D50B40104F12400BDE810400023FFF764BC81
S31500001D6010B582B00446009104F124002146FFF725
S31500001D7097FC00281CBF41F207018842C4F8740191
S31500001D800CD1A01C017839B1407810B140F2032083
S31500001D9016BD40F2022016BD40F2012016BDFEE738
S31500001DA0002200F08DBFFEE76849694A01E021B1D3
S31500001DB0491E1369DB07FAD401B9BAE05060012065
S31500001DC01060106910F0060F05D0410700D5B3E08A
S31500001DD0800700D5B3E000207047F0B51346002217
S31500001DE0002936D0594C5A4D8BB98B4231D250F816
S31500001DF0046BEE605B1C08262E60264601E036B3B7
S31500001E00761E2F69FF07FAD4002EEED11FE0EFF3FE
S31500001E10108672B600230EE02F6907F01907102FFF
S31500001E2008BF2F602F693F07F6D550F8047BEF6097
S31500001E305B1C10272F608B42F4D306B962B6264688
S31500001E4001E026B1761E2869C007FAD40EB96FF0F4
S31500001E5002021046F0BD2DE9F84F3B4F0D4639689A
S31500001E600446002041F001019B4639604FEA920882
S31500001E708146AA4602E0B1440AEB860AC14517D25A
S31500001E8004EB89063046FFF78FFF010022D1C6F327
S31500001E900A00C0F500608608A8EB0900B04238BF0A
S31500001EA006465A4631465046FFF797FF0100E2D0F4
S31500001EB021682A68914209D02046FFF775FF010084
S31500001EC004D15A4601212846FFF787FF3968490899
S31500001ED049003960BDE8F28F1B491C4A0B6843F084
S31500001EE001030B608860012048604869400704D5FB
S31500001EF008684008400008601EE04869800704D56D
S31500001F00086840084000086019E00220486001E0C7
S31500001F1022B1521E4869C007FAD422B9086840089F
S31500001F204000086005E0086840084000086000209E
S31500001F3070476FF0020070474FF0FF3070476FF048
S31500001F4001007047002386E708000E40809698003F
S31500001F500C000E4010B54A688B68CC6809680160B1
S31500001F6002600360046010BD10B50268036804686F
S31500001F7000680A608C604B60C86010BD38B50446C6
S31500001F800D46FFF7E7FF05F110012046FFF7E2FFD8
S31500001F9005F120012046FFF7DDFF05F1300120465F
S31500001FA0BDE83440D6E72DE9F04F91B0804689462A
S31500001FB016461C4600F0A5FE074614B1012C02D0B9
S31500001FC003E0002000E00420386000207860F86418
S31500001FD0786820F44060786000203863786300F009
S31500001FE0A5FE04464FF482703D1841462846FFF789
S31500001FF0B1FF08F110012846FFF7ACFF204600F0BC
S3150000200099FE2048386500254FF4D27007EB000A88
S315000020100CE000F08BFE044659465046FFF7AEFF33
S31500002020204600F087FE184838656D1CB54211D26F
S3150000203009EB851B1BF00300EBD04022594668468E
S31500002040FFF706F900F072FE044669465046FFF7B0
S3150000205095FFE5E700F06AFE04464FF480703E18EF
S3150000206041463046FFF780FF08F110013046FFF782
S315000020707BFF204600F05EFE384600F04BFE11B0B6
S31500002080BDE8F08F888AC801070D810100281CBFB2
S315000020906C21FFF785BE704780B500F12002002352
S315000020A01360536031B1012180F8681020220FF2CD
S315000020B0681104E080F8681020220FF23C1168E0F5
S315000020C02DE9F0411600044688461CD000F077F84A
S315000020D0A7B1AE4212D300F067F804F128012046FA
S315000020E000F053F8A844761B002707E0B509012342
S315000020F000F056F808EB8518A6EB8516402EF5D2AB
S315000021000EB100F056F848E07CB5044604F1200014
S315000021100D4642680168D20042EA51728DF80320EA
S31500002120C900130E8DF80030160A130C0A0E8DF82E
S3150000213004208DF801300A0C8DF805208DF8026018
S315000021400A0A8DF806208DF80710007800F044F88A
S3150000215034BFC0F13802C0F178022046FFF7B0FF65
S3150000216088B9082269462046FFF7AAFF58B901E058
S3150000217000F038F894F86810002914BF1C212021BB
S315000021808842F5D3002076BD86E7012331E097E744
S31500002190BAE7FFF76DF8002002BD0020BDE8F08128
S315000021A02A4641462046FEE6E0192A462830FFF731
S315000021B04FB8E019324641462830FFF749B8206A41
S315000021C000F03F073018B042C7F14005206202D246
S315000021D0606A401C606270470FF25C0100F03F00CD
S315000021E038287047810854F8211009BA2950001D73
S315000021F070470122D7E6000067E6096A85AE67BB2D
S3150000220072F36E3C3AF54FA57F520E518C68059BD2
S31500002210ABD9831F19CDE05BD89E05C107D57C36A7
S3150000222017DD703039590EF7310BC0FF111558689C
S31500002230A78FF964A44FFABE8000000000000000DA
S315000022400000000000000000000000000000000088
S315000022500000000000000000000000000000000078
S315000022600000000000000000000000000000000068
S315000022700000000000000000890001EB401000F1A2
S31500002280844002607047DFF874104A68D20702D4AF
S315000022900A680242FCD1704770B5020A0C4602F089
S315000022A00F020021521E092ADFF8545014D8DFE825
S315000022B002F005141313071619131C20DFF8385003
S315000022C0C0F3043611B10846FFF7DDFF224631465A
S315000022D02846BDE87040CFE770BD1035F0E73035D1
S315000022E00121EDE738351021EAE740354FF480311A
S315000022F0E6E7DFF81050E3E700400E4040410E40AD
S31500002300B0400E4050410E400248704702487047A8
S31500002310024870474A43E00F6A43E00F8642E00FE7
S3150000232010B54A688B68CC68096801600260036072
S31500002330046010BD10B502680368046800680A608E
S315000023408C604B60C86010BD38B504460D46FFF77B
S31500002350E7FF05F110012046BDE83440E0E738B557
S3150000236004460D46FFF7E6FF05F110012046BDE8DD
S315000023703440DFE78C220FF2F87150430844007AAC
S3150000238070478C220FF2E87150430844407A704738
S3150000239010B500F010F8BDE8104000F10C0106E0A1
S315000023A010B500F008F8BDE8104000F12C0120221D
S315000023B01846FEF74DBF0B468C240FF2B4716043EE
S315000023C008447047F8B504460D46164600F0AEFCC4
S315000023D007464FF4847029462044FFF7B5FF4FF4B3
S315000023E0867031462044FFF7AFFF384600F0A2FC66
S315000023F0DFF8E8062065012060656069000E00F0E0
S31500002400010080F00100F2BD2DE9F04F89B00446CD
S3150000241088469246994600F089FC83464FF48270BE
S31500002420271808F1400100F08AF94FF48670251844
S31500002430514600F025F94FF4887026180AF120015C
S315000024403046FFF781FF00F023F900F024F98346B8
S31500002450414600F074F94FF4847004EB000A08F169
S31500002460200100F013F908F140013046FFF76CFF38
S3150000247000F00EF9DFF868062065DFF8680600F060
S315000024804BF883464FF48070261809F1400100F09E
S31500002490F4F869465046FFF762FF00F0F9F800F0DD
S315000024A045FC834600F0EBF800F0F2F8DFF838065A
S315000024B02065DFF838066065DFF8340600F0F3F8CB
S315000024C0054600F03AF900F0DDF8DFF82806206549
S315000024D0DFF8240600F020F8054649465046FFF787
S315000024E03EFF00F0CFF800F021FC0546694638466D
S315000024F0FFF72AFF00F0C6F8DFF800062065DFF8D0
S31500002500000600F009F8044600F0B5F8204600F091
S3150000251011FC09B0BDE8F08F60650120A06500F0F0
S3150000252005BC2DE9F04F99B004468846914600F067
S31500002530FDFB05464FF48270271800F0FEF800F008
S31500002540A1F8DFF8C0052065DFF8BC056065DFF897
S31500002550BC05FFF7E3FF06464FF48070251808A96F
S3150000256000F002FB00F0E6F800F0E0FB064600F0A3
S3150000257086F800F0DFF8DFF898052065DFF89405A7
S3150000258060654FF48670FFF7C9FF82464FF4867088
S31500002590261810A93046FFF7E2FE694600F0E4FA75
S315000025A0504600F0C7FB00F0C1FB824608F140012F
S315000025B000F0C5F8504600F0BDFBDFF85C0520656D
S315000025C00120606500F0B2FB83464FF4847004EB93
S315000025D0000A414600F05AF800F05AF8DFF83C05C8
S315000025E02065DFF83C056065DFF8380500F05BF82C
S315000025F0834669465046FFF7A7FE10A93046FFF707
S31500002600A3FE00F045F8DFF820052065DFF81C057D
S315000026106065DFF81C05FFF781FF83464FF488707D
S3150000262049462044FFF79BFE00F032F800F07EFB9F
S31500002630834600F082F808F1400100F027F808A967
S315000026403046FFF781FE00F023F8DFF8E804206546
S31500002650DFF8E404606500F069FB044609F1400117
S315000026602846FFF77CFE00F006F8204600F062FBE5
S3150000267019B0BDE8F08F09F1200130466FE64146FA
S31500002680284661E6284600F055BB314650465BE6D3
S31500002690584600F04FBBDFF86C042065DFF89C0459
S315000026A06065DFF89C04A0650120E06500F03EBB94
S315000026B02DE9F04105460F461C469046202120464E
S315000026C0FFF76EFB0120206000F030FB06464FF45A
S315000026D0807041462844FFF737FE4FF48270394632
S315000026E02844FFF731FE4FF484702F18214600F07E
S315000026F026F800F01FF8DFF84C0428650BE0DFF839
S3150000270048042865DFF844046865DFF84404A865D2
S31500002710DFF84004E8656869C001F0D500F006FB03
S31500002720054621463846FFF71AFE2846BDE8F04121
S3150000273000F000BB304600F0FDBA08F12001384633
S3150000274002E650F8043B934203D007E050F8042B0E
S3150000275022B9091F0129F9DA0120704700207047C4
S315000027602DE9F04188B004460E46154698462021CC
S315000027706846FFF715FB0120009020210E9F384682
S31500002780FFF70EFB202107F12000FFF709FB2021B0
S3150000279007F14000FFF704FB3046FFF7EBFD00F0C2
S315000027A0A3F800F09CF88C210FF2C43011FB06F15F
S315000027B008444068461E00E0761E012E16DB00F037
S315000027C03EF8F9D512E0202229463846FEF750FD9C
S315000027D0202205F1200107F12000FEF749FD202205
S315000027E0694607F14000FEF743FD761E002E23D40E
S315000027F03A4639462046FFF794FE00F020F8F4D515
S31500002800002220213846FFF79CFF70B100222021CC
S3150000281007F12000FFF795FF38B10022202107F1CC
S315000028204000FFF78EFF0028CDD13B462A463946A9
S315000028302046FFF7E9FDD8E708B0BDE8F081301182
S3150000284006EBD060401158F82010A6EB4010C140AE
S31500002850C80770472DE9F04104460F4690B016466A
S315000028601D463846FFF786FD00F03EF800F037F8C3
S3150000287069463846FFF78CFD08AB6A4606F140010B
S315000028802046FFF715FF00F051FA80464FF482709C
S3150000289008A92044FFF758FD4FF4867027183146E3
S315000028A0FFF74DFF4FF4887006F120012044FFF733
S315000028B04BFD404600F03EFAFFF7EDFE06464FF4AC
S315000028C0807005F120012044FFF749FD294638466E
S315000028D0FFF745FDFFF72EFF10B0BDE8F0810020A1
S315000028E020602063606370470146204600F026BAE8
S315000028F038B50D4604462021FFF752FAFFE71F20A0
S315000029004242295C2244401ED177F9D531BD2DE9DA
S31500002910F04F0F00984618BFB8F1000FB9B0044643
S31500002920154603D0429E0EB1012D02DA40F2016037
S31500002930D1E0FFF7D4FF606840F01000606000202F
S31500002940FFF71FFDFFF7D0FF606820F4406040F4FA
S315000029500060606009A9606820F4407040F400706F
S3150000296060600020FFF71CFD09AA31462046FFF7EC
S3150000297029FD30B909AA06F120012046FFF722FDFC
S3150000298010B140F20260A6E0212DA8BF202520212B
S3150000299011A8FFF705FA002014E02A1A521E01A911
S315000029A09208A5F1010C01EB8201ACEB000C3B5C3B
S315000029B00A6C4FEACC0C0CF0180C03FA0CF31A4311
S315000029C00A64401CA842E8DB00F0B0F905464FF463
S315000029D08470271811A93846FFF7B6FCFFF752FE98
S315000029E05D48206500F0A2F981464FF480702518F5
S315000029F011A900F0B9F8484600F09CF919AB09AAEC
S31500002A0006F120012046FFF753FE00F08FF98346BA
S31500002A104FF4827019A92044FFF796FC4FF4887092
S31500002A2004EB000911A94846FFF78EFC4FF48670A7
S31500002A3004EB000AFFF729FEFFF72AFE4748206548
S31500002A404748606500F072F9834611A94846FFF7CA
S31500002A5086FC19A900F088F8FFF71AFE21A8009055
S31500002A6011AB0FF2581200212046FFF779FE01A89C
S31500002A70009019AB424600212046FFF771FE21ABBC
S31500002A8021AA00212046FFF7E5FE01AB21AA01A9F4
S31500002A902046FFF7B9FC01AB01AA00212046FFF74B
S31500002AA0D9FE00F043F905460020FFF76AFCFFF760
S31500002AB01BFF01A93846FFF747FCFFF7E6FDFFF7C6
S31500002AC0E1FD28482065234860656069C0014CBF68
S31500002AD0002040F2046039B0BDE8F08F3035DA10DE
S31500002AE0D01482CB1481E11C8CE11C811C84D91C7E
S31500002AF08391D11CE014D8141482E11C84D314826F
S31500002B00D11CE0148AD11C81821CC00C0C0C010063
S31500002B10C00C0C83D91C83D88AD11C83DA0C81148F
S31500002B2082D11C81C80C0C818CE11CD01484E31466
S31500002B3082D11C01D81483D11CC00C01D91C83D1AD
S31500002B401C81E11C39398401D02484FC1C82FED806
S31500002B508B1C81A03938010030D00C0130E11C8477
S31500002B6030D91C013035DA142846FFF7F8BB0000CF
S31500002B702000000000010000050C0000FFFFFFFF21
S31500002B80FFFFFFFFFFFFFFFF000000000000000047
S31500002B900000000001000000FFFFFFFF512563FC5D
S31500002BA0C2CAB9F3849E17A7ADFAE6BCFFFFFFFFC2
S31500002BB0FFFFFFFF00000000FFFFFFFF96C298D84F
S31500002BC04539A1F4A033EB2D817D0377F240A46350
S31500002BD0E5E6BCF847422CE1F2D1176BF551BF3759
S31500002BE06840B6CBCE5E316B5733CE2B169E0F7C2C
S31500002BF04AEBE78E9B7F1AFEE242E34F62F30F2217
S31500002C0062F31F42401810F0030308D0C91A1FD3FD
S31500002C10DB0748BF00F8012D28BF20F8022D13005E
S31500002C2030B414461546103928BF20E93C00FAD8BE
S31500002C30490728BF20E90C0048BF40F8042D890049
S31500002C4028BF20F8022D48BF00F8012D30BC704780
S31500002C50C91818BF00F8012DCB0728BF00F8012DB1
S31500002C607047F8B505460E4617461C4600F0D9F8DB
S31500002C70079A0699284600F0DAF805F124000021A3
S31500002C80016006750C22394605F13900FEF7E0FAB7
S31500002C9005F14500210C01708470210A4170F1BDD7
S31500002CA010B584B01C460191029200F128010091F2
S31500002CB000F1380300F12402214600F0D5F81FBDCB
S31500002CC000B500BF130096469446103928BFA0E809
S31500002CD00C50FAD85FEA417C28BF0CC048BF40F8C8
S31500002CE0042BC90728BF20F8022B48BF00F8012B88
S31500002CF000BDFEE7890001EB401000F18440026050
S31500002D00704780B5FFE7012201210648FFF7F2FF71
S31500002D10054802BD0449884203D100220121014829
S31500002D20E8E77047B0400E4000000F40EFF3108018
S31500002D3072B6704700B962B67047FEE7426852093C
S31500002D40042941EA421209D9491F022908D9C91E94
S31500002D50032903D9091F022902D970474260704727
S31500002D6042F0100141607047890001EB401000F10C
S31500002D7084400260704710B54A688B68CC68096861
S31500002D80016002600360046010BD10B5026803684C
S31500002D90046800680A608C604B60C86010BD38B576
S31500002DA0102A04460D460ED101220021FFF7DCFF52
S31500002DB04FF48870044429462046FFF7DCFF05F1EE
S31500002DC01001204606E000220021FFF7CDFF29462C
S31500002DD004F12400BDE83440CDE71FB50C4614F0DD
S31500002DE0030108D06946FFF7D0FF10226946204646
S31500002DF0FEF72EFA1FBD2146FFF7C7FF1FBD1FB501
S31500002E00044611F0030008D010226846FEF720FAA7
S31500002E1069462046FFF7AFFF1FBD2046FFF7ABFF11
S31500002E201FBD00281CBF2421FEF7BABF704770B52E
S31500002E3004000D4618BF002D164602D16FF0210082
S31500002E4070BD2421FEF7ACFF802E18BFB6F5807F3B
S31500002E5002D06FF0220070BD2660F2082946201DC0
S31500002E60FEF7F6F9002070BD2DE9FF4F81B0002A6C
S31500002E7014BF17680027002400281CBF0F9D002DD3
S31500002E800AD0DDF84090B9F1000F1EBF002BDDF827
S31500002E903880B8F1000F02D16FF0210070E00068B1
S31500002EA0802818BFB0F5807F04D06FF0220067E05D
S31500002EB000F069F8029884425ED2002FF8D1FFF73D
S31500002EC020FF0646002070604FF0000B4FF4404094
S31500002ED03060FFF72BFF8246019800688028019832
S31500002EE00CBF08221022011D3046FFF758FF049937
S31500002EF006F18400FFF783FF00F050F80298001BEC
S31500002F000009009014E000F04CF80BF1010BFFF7FC
S31500002F100DFF8246291906F1A000FFF770FF09EBA5
S31500002F20040106F18000FFF758FF00F037F810346F
S31500002F3000988345E7D30298001B0FD05FB900F0D5
S31500002F4030F8FFF7F3FE8246414606F18000FFF7B0
S31500002F5044FF00F023F800F016F8ECE7FFF7E6FE72
S31500002F608246049906F18400FFF737FF00F016F851
S31500002F703046FFF7CFFE9DE7039800B107600020BB
S31500002F8005B0BDE8F08F285D18F80710484009F82D
S31500002F900400641C781C00F00F0770475046FFF7CA
S31500002FA0C9BE4820B0600520B06030698007FCD4F7
S31500002FB00320B0607047FEE70B48016841F47001DA
S31500002FC001600A48416941F400514161016889087C
S31500002FD089000160416B490849004163016A21F09B
S31500002FE0805101627047000088ED00E040300E40DD
S31500002FF02DE9F04399B000F0E4F868461421FEF795
S31500003000CFFE6846FDF730FF039802284FF0FF38E1
S3150000301009D2002020600120A8423CBF44F820804D
S31500003020401CF9D35CE0A84238BF40F2045058D3A4
S31500003030FDF77CFD07460498C068C6190C2205A951
S315000030403846FDF7B1FE00284BD10598DFF86091B0
S3150000305048451FD00C2205A93046FDF7A5FE0028DD
S315000030603FD10598484507D00020A8423CBF44F808
S315000030702080401CF9D31DE0079A05A93046FDF7CC
S3150000308093FE00F099F860BB079A05A93846FDF74C
S3150000309099FE30BB079A05A93846FDF785FE0799C4
S315000030A0424605A8FDF712FC4249884205D0002099
S315000030B000F01AF840F2055013E00798103880081F
S315000030C0A84288BF2846002106E005AA02EB810235
S315000030D0D26844F82120491C8142F6D300F004F856
S315000030E0002019B0BDE8F08302E044F82080401CBF
S315000030F0A842FAD37047F0B599B000F062F82C48B0
S315000031000590142101200690502007906846FEF78E
S3150000311047FE6846FDF7A8FE0398A84207D3022893
S315000031200AD22068002818BF10F1010F02D040F221
S3150000313004503AE0002038E00020C04606460498D5
S31500003140C0688719112D28BF1025002006E005AAA2
S3150000315054F8201002EB8002401CD160A842F6D33E
S315000031604FF0FF3004E005A901EB85016D1CC86036
S31500003170102DF8D302464C2105A8FDF7A7FBC04346
S31500003180189000F019F880B9502205A93846FDF7C5
S3150000319019FE50B90498C1683046FDF735FE20B9CE
S315000031A0502205A93046FDF70DFE19B0F0BD00000E
S315000031B039528FE1E320BBDE0498C1683846FDF73B
S315000031C023BE04460D4605A85021FEF7E9BD30B5DD
S315000031D095B0044668461421FEF7E2FD6846FDF701
S315000031E043FE039D022D20D3294605A8FFF700FFC5
S315000031F000281CBF40F20551884218D1002005A9BD
S3150000320000E0401CA84210D251F8202012F1010F14
S3150000321006D141F82040294605A8FFF76CFF06E0D5
S31500003220A242EED140F2035001E040F2025015B046
S3150000323030BD00004EF68851CEF20001086840F419
S3150000324070000860BFF34F8FBFF36F8F4FF00070B1
S31500003250E1EE100A704700000120C046002801D0A8
S3150000326000F008F80020AFF30080FDF760FB00F0E7
S3150000327015F8000010B5074979441831064C7C440E
S31500003280163404E00A68081D114488470146A14225
S31500003290F8D110BD800000009000000000F000B8DA
S315000032A00746384600F002F8FBE700002021090334
S315000032B026311820ABBEF9E700F049020080000075
S315000032C0C0EA2101C0EA210180B5FFF775FEFDF7CE
S315000032D07FFBBDE8014000F000B8AFF30080FFF7C8
S315000032E0A9FFFFF7B9FF10B450F8041B79B10268C3
S315000032F0436802440830DC0744BFA9F10104E3181F
S3150000330052F8044B43F8044B091FF9D1ECE710BC03
S3150000331070470000D3FFFFFF100000009CFFFFFF77
S31100003320800000200000000000000000FB
S5030315E4
S70500000000FA
